:100000000C942A000C94EC010C94AA010C94470067
:100010000C9447000C9447000C9447000C94470044
:100020000C9447000C9447000C9447000C94470034
:100030000C9447000C9447000C9447000C94470024
:100040000C9447000C9447000C9447000C94470014
:100050000C94470011241FBECFE5D8E0DEBFCDBF12
:1000600010E0A0E6B0E0E4E7FCE002C005900D92ED
:10007000AE3EB107D9F721E0AEEEB0E001C01D926F
:10008000AC31B207E1F70E9431020C9438060C94AF
:1000900000005D9BFECF8CB90895883681F470E036
:1000A00080E090E00E942B052AE037ED43E250E427
:1000B0000E94B70520E030E040E85FE32DC08837BC
:1000C00051F470E080E090E00E942B052AE037EDCB
:1000D00043E250E419C0803661F470E080E090E0C3
:1000E0000E942B0523E333E343E250E40E94B7056B
:1000F00015C08037B9F470E080E090E00E942B05D5
:1001000023E333E343E250E40E94B7059B01AC01D3
:1001100060E070E08FE793E40E941B040E94FA0401
:10012000611101C06FE7862F0895CF92DF92EF92A1
:10013000FF920F931F93CF93DF93CDB7DEB72A972C
:100140000FB6F894DEBF0FBECDBF20E0AE014F5F0B
:100150005F4F6A013AE0E32EF12C8601020F111D78
:10016000B7010E942406805DD8018C93CB012F5FDC
:10017000009799F7D601A20FB11D8EEE90E0AC1555
:10018000BD0529F03E91FC013193CF01F8CF2A3013
:1001900039F0E22FF0E0E251FF4F10822F5FF7CFEE
:1001A0008EEE90E02A960FB6F894DEBF0FBECDBF5C
:1001B000DF91CF911F910F91FF90EF90DF90CF9043
:1001C0000895E0910201F09103018083E091000124
:1001D000F091010181E090E09C010090FD0002C0DF
:1001E000220F331F0A94E2F73081232B2083EFE99B
:1001F000FFE03197F1F700C00000E0910001F091BD
:1002000001010090FD0002C0880F991F0A94E2F7D7
:1002100080959081892380838FE99FE00197F1F792
:1002200000C000000895CF93DF93E0910001F091AA
:100230000101682F607F4081942F9F7021E030E0A2
:10024000A9010090FB0002C0440F551F0A94E2F779
:10025000492B462B0090FC0002C0220F331F0A944A
:10026000E2F72095242320839091FA00C82FD0E054
:100270009130A9F4822F8F70862B0E94E100E091CB
:100280000001F091010180818F7094E0CC0FDD1F9F
:100290009A95E1F78C2BDF91CF910C94E100CE0180
:1002A000DF91CF910C94E100CF93DF93EC01899122
:1002B000882319F00E941301FACFDF91CF9108959E
:1002C000CF93DF93E0910001F091010141E050E014
:1002D0009A010090FB0002C0220F331F0A94E2F73C
:1002E0000090FC0002C0440F551F0A94E2F7942FBF
:1002F000922B90952081922390832091FA00C82F11
:10030000D0E02130A9F49F70807F892B90E00E947B
:10031000E100E0910001F091010190819F7084E083
:10032000CC0FDD1F8A95E1F79E01292BC90101C081
:10033000CE01DF91CF910C94E100CF93C82F81E0E3
:100340000E94600182EA90E00E9454018C2FCF91BC
:100350000C9413011F920F920FB60F9211242F933A
:100360003F934F935F936F937F938F939F93AF933D
:10037000BF93EF93FF9381E00E94600180EB90E0D8
:100380000E94540180916100811106C081E0809338
:1003900061008AEB90E004C0109261008BEB90E06A
:1003A0000E9454012FEF80E792E02150804090405E
:1003B000E1F700C00000FF91EF91BF91AF919F91D5
:1003C0008F917F916F915F914F913F912F910F90FE
:1003D0000FBE0F901F9018951F920F920FB60F929D
:1003E00011242F933F934F935F936F937F938F933A
:1003F0009F93AF93BF93EF93FF9380916000865FCD
:100400008093600080916000853618F08AE08093C8
:100410006000609160008F9A88E60E944D0083BD65
:100420008DE685BD81E00E9460018EEB90E00E9428
:1004300054018091600090E00E9495000E94540158
:10044000FF91EF91BF91AF919F918F917F916F91AC
:100450005F914F913F912F910F900FBE0F901F9082
:100460001895CF93DF93CDB7DEB72A970FB6F894E0
:10047000DEBF0FBECDBF8091620090916300A0915E
:100480006400B091650089839A83AB83BC838091BB
:10049000660090916700A0916800B09169008D831B
:1004A0009E83AF83B8878DE991E090930501809397
:1004B000040185E390E0909311018093100184E39F
:1004C00090E09093F9008093F80083E390E090939C
:1004D0000B0180930A01FE013596CE010196AE0113
:1004E000475F5F4F0CE011E026E031E06191D901F8
:1004F0006D939D01DC016D91CD01D8016D938D014E
:100500004E175F0799F7E0E16E2EE1E07E2EA6E040
:10051000B1E0ECE0F1E061E070E081E090E09B01AF
:10052000019002C0220F331F0A94E2F734B3322B3A
:1005300034BB45B3242B25BBAB010D9002C0440F47
:10054000551F0A94E2F7542F5095352334BB242BC2
:1005500025BB21E0E031F20701F72BE330E03093D7
:1005600003012093020130930101209300012AE34B
:1005700030E03093FF002093FE0023E02093FD0045
:1005800022E02093FC0021E02093FB002093FA005E
:100590002AB3206F2ABBE091FE00F091FF00AC016E
:1005A0000090FD0002C0440F551F0A94E2F79C0121
:1005B0000090FC0002C0220F331F0A94E2F7242BA4
:1005C0003081232B0090FB0002C0880F991F0A94F2
:1005D000E2F7822B80838091FA00813061F483E31B
:1005E0000E94600182E30E94600188E20E94600133
:1005F0008EE00E9460018EE00E94600181E00E9416
:1006000060018CEC90E00E9454018CE00E9460013B
:10061000599A88E18AB986E880BD82E689B987E877
:1006200086B93E9A609160008F9A88E60E944D00DC
:1006300083BD8DE685BD82B3806C82BB80EC8BBFB1
:1006400080E88FBF8FEF87BBCC24C394D12C65E0AB
:10065000362E7EE2272E42E9A42E40E0B42E0CE096
:1006600011E0E0911001F09111012801C601D801BB
:100670000C9002C0880F991F0A94E2F78095908130
:100680008923808336E0832E31E0932EE12CF12CF8
:10069000E0910A01F0910B01D401C6010D9002C056
:1006A000880F991F0A94E2F74D019081892391F4F4
:1006B000E0910401F0910501D501AE0DBF1D8C91B3
:1006C0000995BFEFE1EEF4E0B150E040F040E1F712
:1006D00000C000002FEFE21AF20A84E0E816F104ED
:1006E000B9F6AFE9BFE01197F1F700C00000E09163
:1006F0001001F09111010F5F1F4FC601D2010C9044
:1007000002C0880F991F0A94E2F79081892B808399
:10071000B4E0AB0EB11C6016710609F0A2CF0FED6C
:1007200010E0F80181918F01882319F00E9449009F
:10073000F8CF87B1807F87B987B187B9369A349B64
:10074000FECF84B190E09A87898725B189859A8503
:10075000922B9A87898789859A85389EB001399E20
:10076000700D112480E090E00E94290520E030EC1B
:100770004FE754E40E94880420E030E040E251E476
:100780000E94B70520E030E040E251E40E94B70546
:100790000E94FA04CB010E949500BC0190E0292F31
:1007A000092E000C330BFB01E20FF31F40814423A1
:1007B00031F0F901EE5EFE4F40839F5FF0CF2EEFE8
:1007C000290F30E0492F092E000C550BFA01EE5E7F
:1007D000FE4F4217530734F0DF0111978C9180834D
:1007E0009150F0CF218202E111E0D8018D918D016D
:1007F000882319F00E944900F8CF8DE00E9449003B
:1008000080916100EAE6F0E090E0880F991F208176
:1008100030E039BB28BBE80FF91F0180F281E02DE1
:10082000AFE3BCE91197F1F700C00000309779F70A
:1008300019BA18BA10CF5058BB27AA270E94330400
:100840000C947D050E946F0538F00E94760520F01B
:1008500039F49F3F19F426F40C946C050EF4E095DE
:10086000E7FB0C946605E92F0E948E0558F3BA1732
:10087000620773078407950720F079F4A6F50C94B6
:10088000B0050EF4E0950B2EBA2FA02D0B01B90187
:1008900090010C01CA01A0011124FF27591B99F0F6
:1008A000593F50F4503E68F11A16F040A22F232F02
:1008B000342F4427585FF3CF469537952795A79552
:1008C000F0405395C9F77EF41F16BA0B620B730BF9
:1008D000840BBAF09150A1F0FF0FBB1F661F771F6A
:1008E000881FC2F70EC0BA0F621F731F841F48F41F
:1008F000879577956795B795F7959E3F08F0B0CFA8
:100900009395880F08F09927EE0F9795879508958E
:100910000E949C040C947D050E94760558F00E946C
:100920006F0540F029F45F3F29F00C9466055111E2
:100930000C94B1050C946C050E948E0568F3992304
:10094000B1F3552391F3951B550BBB27AA276217CB
:100950007307840738F09F5F5F4F220F331F441FD8
:10096000AA1FA9F335D00E2E3AF0E0E832D091500C
:100970005040E695001CCAF72BD0FE2F29D0660FF9
:10098000771F881FBB1F261737074807AB07B0E83C
:1009900009F0BB0B802DBF01FF2793585F4F3AF042
:1009A0009E3F510578F00C9466050C94B1055F3FAD
:1009B000E4F3983ED4F3869577956795B795F795C8
:1009C0009F5FC9F7880F911D9695879597F90895B0
:1009D000E1E0660F771F881FBB1F6217730784074C
:1009E000BA0720F0621B730B840BBA0BEE1F88F75B
:1009F000E09508950E94960588F09F5798F0B92FCA
:100A00009927B751B0F0E1F0660F771F881F991F43
:100A10001AF0BA95C9F714C0B13091F00E94B00530
:100A2000B1E008950C94B005672F782F8827B85F40
:100A300039F0B93FCCF3869577956795B395D9F79B
:100A40003EF490958095709561957F4F8F4F9F4FA5
:100A50000895E89409C097FB3EF4909580957095B1
:100A600061957F4F8F4F9F4F9923A9F0F92F96E9FA
:100A7000BB279395F695879577956795B795F1116F
:100A8000F8CFFAF4BB0F11F460FF1BC06F5F7F4F0C
:100A90008F4F9F4F16C0882311F096E911C077231E
:100AA00021F09EE8872F762F05C0662371F096E827
:100AB000862F70E060E02AF09A95660F771F881FF6
:100AC000DAF7880F9695879597F9089597F99F67B4
:100AD00080E870E060E008959FEF80EC08950024C6
:100AE0000A941616170618060906089500240A9493
:100AF00012161306140605060895092E0394000C19
:100B000011F4882352F0BB0F40F4BF2B11F460FFA7
:100B100004C06F5F7F4F8F4F9F4F089557FD9058D0
:100B2000440F551F59F05F3F71F04795880F97FBB1
:100B3000991F61F09F3F79F087950895121613066B
:100B40001406551FF2CF4695F1DF08C0161617069A
:100B50001806991FF1CF86957105610508940895CF
:100B6000E894BB2766277727CB0197F908950E9461
:100B7000CA050C947D050E946F0538F00E94760529
:100B800020F0952311F00C9466050C946C0511244B
:100B90000C94B1050E948E0570F3959FC1F3950FDB
:100BA00050E0551F629FF001729FBB27F00DB11DF1
:100BB000639FAA27F00DB11DAA1F649F6627B00D81
:100BC000A11D661F829F2227B00DA11D621F739F6A
:100BD000B00DA11D621F839FA00D611D221F749F78
:100BE0003327A00D611D231F849F600D211D822FBF
:100BF000762F6A2F11249F5750409AF0F1F08823E6
:100C00004AF0EE0FFF1FBB1F661F771F881F915012
:100C10005040A9F79E3F510580F00C9466050C9456
:100C2000B1055F3FE4F3983ED4F3869577956795D9
:100C3000B795F795E7959F5FC1F7FE2B880F911D3C
:100C40009695879597F90895AA1BBB1B51E107C09C
:100C5000AA1FBB1FA617B70710F0A61BB70B881F4C
:100C6000991F5A95A9F780959095BC01CD010895DB
:040C7000F894FFCF26
:100C74005A010001020304050607096F008D0008EC
:100C8400740000000C79006F00047E007400068379
:100C94000079000288007E00038D008300010000BB
:100CA400880043303D2B3132332D343536583738B4
:100CB400392F796F752070726573736564203A00FB
:100CC400726F746174696F6E3A00434357006475C0
:100CD4007479206379636C65203D200050726573DC
:100CE40073204F6E204B6579626164203A2900506D
:0E0CF400413020766F6C74616765203D2000F2
:00000001FF
